:1000000049C0000064C0000062C0000060C0000081
:100010005EC000005CC000005AC0000058C0000074
:1000200056C0000054C0000052C0000050C0000084
:100030004EC000004CC000004AC0000048C0000094
:1000400046C0000044C0000073C1000040C0000072
:100050003EC000003CC000003AC0000038C00000B4
:1000600036C0000034C0000032C0000030C00000C4
:100070002EC000002CC000002AC0000028C00000D4
:1000800026C0000024C0000022C0000020C00000E4
:100090001EC0000011241FBECFEFD0E1DEBFCDBFD8
:1000A00011E0A0E0B1E0ECE7F5E000E00BBF02C03A
:1000B00007900D92A030B107D9F721E0A0E0B1E0A0
:1000C00001C01D92A73FB207E1F755D255C298CFA4
:1000D000EF92FF920F931F93CF93DF9381E0809372
:1000E000D80082E08093E20084E08093E30083E123
:1000F0008093E4008FE78093DF008FEF8093DE0032
:1001000080EB8093DB0080E00DEE10E02EEE30E01F
:10011000C4EFD0E04FEF5FEFBA01A0EFB0E00F2ED9
:10012000FFEEEF2EF12CF02DF8018083F901108203
:10013000488359836A837B831D921D921D921C9272
:100140001397F7011082805F803F71F782E0809300
:10015000D800DF91CF911F910F91FF90EF900895FC
:10016000CF92DF92EF92FF922091ED0030915C01EF
:100170003E3008F052C0AAE5B1E01296EC91129719
:100180003BE0E39FF0011124E65AFE4F9483838302
:1001900012963C9112973F5F12963C9312971296DB
:1001A0003C913295307F3093ED00E4EFF0E0C08079
:1001B000D180E280F38060957095AB0160E070E0E3
:1001C000440F551F661F771F440F551F661F771F6B
:1001D000440F551F661F771F4C255D256E257F2513
:1001E0004083518362837383A0E0B0E0880F991F3E
:1001F000AA1FBB1F880F991FAA1FBB1F880F991F1B
:10020000AA1FBB1F8093F0009093F100A093F2000F
:10021000B093F30080E98093EF002093ED00FF900E
:10022000EF90DF90CF90089520915A0130915B01BB
:1002300081E0232B09F480E008958F929F92AF9282
:10024000BF92CF92DF92EF92FF920F931F93CF93C3
:10025000DF9320915C01222309F45DC020915A01B3
:1002600030915B0120FD0EC0A0E001E010E0EAE566
:10027000F1E04AC02081318120233123232B09F46E
:1002800043C003C0A0E001E010E00F2EFAE5EF2E1E
:10029000F1E0FF2EF02D6801C094D0942BE0A29FD6
:1002A000D0011124A65ABE4F5D01E3E0AE0EB11C91
:1002B000ED012596F701208131812C213D213183EB
:1002C0002083F50120813181FC0131832083288145
:1002D000FA0120832881222379F0912C292D30E006
:1002E000FD01E20FF31F8680260F371FF901808280
:1002F00093942881921690F3F70120813181202375
:100300003123232BB9F607C0000F111FAF5F2281E5
:10031000A21708F4AFCFDF91CF911F910F91FF90FB
:10032000EF90DF90CF90BF90AF909F908F90089507
:100330001F920F920FB60F9211240BB60F922F93AC
:100340003F934F935F936F937F938F939F93AF935D
:10035000BF93CF93DF93EF93FF93EDEEF0E04081F7
:100360001082509101018091EE0086FF53C0809170
:100370000001581709F44EC0652F70E02BE0529F22
:10038000F0011124E050FF4F84818823B1F080E018
:100390009BE0969F9001979F300D112420503F4F76
:1003A000CAEFD0E0D9011496F901E80FF11D95814B
:1003B00098838F5F9C918917B8F38BE0869FF0013B
:1003C000879FF00D1124E050FF4F82819381A0E0C0
:1003D000B0E0880F991FAA1FBB1F880F991FAA1F83
:1003E000BB1F880F991FAA1FBB1F8093F00090931B
:1003F000F100A093F200B093F300848180658093B4
:10040000EF00573020F45F5F5093010173C01092EA
:10041000010170C090915C019295907F903108F439
:1004200069C080E18093ED008091EE0085FD0BC0F6
:10043000E0E1CDEED0E0AEEEB0E058C0E8838C91C4
:1004400085FF54C001C0E0E1AAE5B1E02D913C91E7
:100450001197E295EF70E15081E090E00E2E02C01E
:10046000880F991F0A94E2F7822B932B11969C9385
:100470008E938091F0009091F100A091F200B091E4
:10048000F300689412F8B695A795979587951694FA
:10049000D1F76E2F70E02BE0E29FF0011124E65AB5
:1004A000FE4F948383838091EF008F7085838581D5
:1004B0008823B1F080E0CAEFD0E09BE0969F9001E6
:1004C000979F300D1124265A3E4FD90115969881D9
:1004D000F901E80FF11D96838F5F9C918917B8F39E
:1004E000EFEEF0E080818068808304C0E05F9E17BB
:1004F00008F0A4CF1092EE004093ED00FF91EF9131
:10050000DF91CF91BF91AF919F918F917F916F912B
:100510005F914F913F912F910F900BBE0F900FBEA7
:100520000F901F901895CF93DF93CDB7DEB72B9721
:100530000FB6F894DEBF0FBECDBFCADD60E070E03D
:1005400080E090E00DDE78948FEF87B918B80FC087
:10055000AE01455F5F4FBE016D5F7F4FCE010196DB
:100560006CDE89819A81089711F48B8188B95CDEF1
:0C0570008111EECFFCCFD7DFF894FFCF55
:00000001FF
