:1000000049C0000064C0000062C0000060C0000081
:100010005EC000005CC000005AC0000058C0000074
:1000200056C0000054C0000052C0000050C0000084
:100030004EC000004CC000004AC0000048C0000094
:1000400046C0000044C00000F2C0000040C00000F4
:100050003EC000003CC000003AC0000038C00000B4
:1000600036C0000034C0000032C0000030C00000C4
:100070002EC000002CC000002AC0000028C00000D4
:1000800026C0000024C0000022C0000020C00000E4
:100090001EC0000011241FBECFEFD0E1DEBFCDBFD8
:1000A00011E0A0E0B1E0EAE9F4E000E00BBF02C03B
:1000B00007900D92AC30B107D9F722E0ACE0B1E087
:1000C00001C01D92A330B207E1F7E4D1E4C198CF9B
:1000D000EF92FF920F931F93CF93DF9381E0809372
:1000E000D80082E08093E20084E08093E30083E123
:1000F0008093E4008FE78093DF008FEF8093DE0032
:1001000080EB8093DB0080E00DEE10E02EEE30E01F
:10011000C4EFD0E04FEF5FEFBA01A0EFB0E00F2ED9
:10012000FFEEEF2EF12CF02DF8018083F901108203
:10013000488359836A837B831D921D921D921C9272
:100140001397F7011082805F803F71F782E0809300
:10015000D800DF91CF911F910F91FF90EF900895FC
:10016000CF93DF93EC01EDEEF0E0508110828091AF
:10017000DC0080FD2CC0442379F0FB012FEF240F1D
:1001800030E02F5F3F4F620F731FAAEFB0E09191F5
:100190009C936E177F07D9F7CE01A0E0B0E0880FDF
:1001A000991FAA1FBB1F880F991FAA1FBB1F880F6B
:1001B000991FAA1FBB1F8093F0009093F100A0939A
:1001C000F200B093F30040654093EF002BC03091F4
:1001D0000C01A32FB0E08BE0389FF0011124E45F05
:1001E000FE4FD383C28344834423A1F0FB0180E00C
:1001F00090E02BE02A9FB0012B9F700D1124645FCB
:100200007E4F2191DB01A80FB91F15962C93019603
:100210008417B8F3373020F43F5F30930C0102C0ED
:1002200010920C015093ED00DF91CF9108951F9231
:100230000F920FB60F9211240BB60F922F933F938C
:100240004F935F936F937F938F939F93AF93BF93DE
:10025000CF93DF93EF93FF93EDEEF0E040811082B8
:1002600050910D018091EE0086FF53C080910C01EA
:10027000581709F44EC0652F70E02BE0529FF00133
:100280001124E45FFE4F84818823B1F080E09BE07D
:10029000969F9001979F300D1124245F3E4FCAEF27
:1002A000D0E0D9011496F901E80FF11D95819883EA
:1002B0008F5F9C918917B8F38BE0869FF001879F31
:1002C000F00D1124E45FFE4F82819381A0E0B0E045
:1002D000880F991FAA1FBB1F880F991FAA1FBB1F3A
:1002E000880F991FAA1FBB1F8093F0009093F10005
:1002F000A093F200B093F300848180658093EF00B7
:10030000573020F45F5F50930D0173C010920D01C0
:1003100070C0909168019295907F903108F469C007
:1003200080E18093ED008091EE0085FD0BC0E0E15F
:10033000CDEED0E0AEEEB0E058C0E8838C9185FF02
:1003400054C001C0E0E1A6E6B1E02D913C911197C7
:10035000E295EF70E15081E090E00E2E02C0880F30
:10036000991F0A94E2F7822B932B11969C938E93FC
:100370008091F0009091F100A091F200B091F30013
:10038000689412F8B695A795979587951694D1F726
:100390006E2F70E02BE0E29FF0011124EA59FE4F2E
:1003A000948383838091EF008F7085838581882378
:1003B000B1F080E0CAEFD0E09BE0969F9001979F5C
:1003C000300D11242A593E4FD90115969881F90113
:1003D000E80FF11D96838F5F9C918917B8F3EFEEBC
:1003E000F0E080818068808304C0E05F9E1708F0A1
:1003F000A4CF1092EE004093ED00FF91EF91DF91BA
:10040000CF91BF91AF919F918F917F916F915F91AC
:100410004F913F912F910F900BBE0F900FBE0F90F9
:100420001F901895CF93DF93CDB7DEB72C970FB6FB
:10043000F894DEBF0FBECDBF4BDE78948CE0E0E0D9
:10044000F1E0DE01119601900D928A95E1F78FEFB0
:1004500087B900E011E0F12C198341E0BE016F5F24
:100460007F4F88E090E07CDE80EF99E4A2E0B0E08E
:100470000197A109B109E1F7103829F0113031F0E5
:10048000002321F001C001E0169502C0110F0F2DCD
:0A04900018B9E2CFC7DFF894FFCFE0
:0C049A00000102030405060708090A0B14
:00000001FF
