S00E00006C696263616E2E73726563AD
S113000049C000005CC000005AC0000058C0000095
S113001056C0000054C0000052C0000050C0000090
S11300204EC000004CC000004AC0000048C00000A0
S113003046C0000044C0000042C0000040C00000B0
S11300403EC000003CC00000C9C0000038C0000031
S113005036C0000034C0000032C0000030C00000D0
S11300602EC000002CC000002AC0000028C00000E0
S113007026C0000024C0000022C0000020C00000F0
S11300801EC000001CC000001AC0000018C0000000
S113009016C0000011241FBECFEFD0E1DEBFCDBFDC
S11300A011E0A0E0B1E0E0E6F2E000E00BBF02C046
S11300B007900D92A030B107D9F7CFD0CFC0A0CF11
S11300C0CF92DF92EF92FF920F931F93CF93DF9320
S11300D021E02093D80022E02093E20024E0209342
S11300E0E30023E12093E40020EA2093DB00109254
S11300F0ED001092EE004FEF5FEFBA014093F40071
S11301005093F5006093F6007093F70020E120937C
S1130110EF00A0E0B0E0880F991FAA1FBB1F880F53
S1130120991FAA1FBB1F880F991FAA1FBB1F80936B
S1130130F0009093F100A093F200B093F30081E0FB
S11301400F2EFDEEEF2EF12CF02D0EEE10E0C4EF8D
S1130150D0E0A0EFB0E00F2EFFEECF2ED12CF02D8B
S1130160982F9295907FF7019083F801108248832D
S113017059836A837B831D921D921D921C9213974F
S1130180F60120838F5F8E3059F782E08093D80088
S1130190DF91CF911F910F91FF90EF90DF90CF905F
S11301A008951092ED00662379F0FC012FEF260FDD
S11301B030E02F5F3F4F280F391FAAEFB0E0919135
S11301C09C93E217F307D9F7EFEEF0E08081807F8C
S11301D0682B608380818064808308951F920F92CE
S11301E00FB60F9211240F900FBE0F901F90189509
S11301F0CF93DF93CDB7DEB728970FB6F894DEBF61
S11302000FBECDBF80E090E05BDF7894FE013196B5
S113021088E0DF011D928A95E9F78FEF87B900E046
S113022011E0F12C198361E0CE010196BADF80E47C
S113023092E4AFE0B0E00197A109B109E1F7103809
S113024029F0113031F0002321F001C001E01695AE
S113025002C0110F0F2D18B9E5CFCADFF894FFCFF4
S9030000FC
