S00E00006C696263616E2E73726563AD
S113000049C0000064C0000062C0000060C000007D
S11300105EC000005CC000005AC0000058C0000070
S113002056C0000054C0000052C0000050C0000080
S11300304EC000004CC000004AC0000048C0000090
S113004046C0000044C000006FC1000040C0000072
S11300503EC000003CC000003AC0000038C00000B0
S113006036C0000034C0000032C0000030C00000C0
S11300702EC000002CC000002AC0000028C00000D0
S113008026C0000024C0000022C0000020C00000E0
S11300901EC0000011241FBECFEFD0E1DEBFCDBFD4
S11300A011E0A0E0B1E0E0E2F5E000E00BBF02C047
S11300B007900D92A030B107D9F721E0A0E0B1E09C
S11300C001C01D92A73EB207E1F727D227C298CFFD
S11300D0EF92FF920F931F93CF93DF9321E020932E
S11300E0D80022E02093E20024E02093E30023E1FF
S11300F02093E4002FE72093DF002FEF2093DE000E
S113010020EB2093DB001092ED001092EE004FEFF5
S11301105FEFBA014093F4005093F5006093F6004A
S11301207093F700A0E0B0E0880F991FAA1FBB1FCF
S1130130880F991FAA1FBB1F880F991FAA1FBB1FD7
S11301408093F0009093F100A093F200B093F30039
S113015080E18093EF000DEE10E02EEE30E0C4EF6E
S1130160D0E0A0EFB0E00F2EFFEEEF2EF12CF02D3B
S1130170F8018083F9011082488359836A837B8361
S11301801D921D921D921C921397F7011082805F9D
S1130190803F71F782E08093D800DF91CF911F9167
S11301A00F91FF90EF9008953091ED0020914C0154
S11301B02E3098F5AAE4B1E01296EC9112972BE058
S11301C0E29FF0011124E65BFE4F94838383129631
S11301D02C9112972F5F12962C93129712962C91B2
S11301E02295207F2093ED00A0E0B0E0880F991FB6
S11301F0AA1FBB1F880F991FAA1FBB1F880F991F17
S1130200AA1FBB1F8093F0009093F100A093F2000B
S1130210B093F30080E98093EF003093ED000895EC
S113022020914A0130914B0181E0232B09F480E0B5
S113023008958F929F92AF92BF92CF92DF92EF92E6
S1130240FF920F931F93CF93DF9320914C012223AE
S113025009F45DC020914A0130914B0120FD0EC08C
S1130260A0E001E010E0EAE4F1E04AC0208131813D
S113027020233123232B09F443C003C0A0E001E071
S113028010E00F2EFAE4EF2EF1E0FF2EF02D6801BE
S1130290C094D0942BE0A29FD0011124A65BBE4F42
S11302A05D01E3E0AE0EB11CED012596F70120815E
S11302B031812C213D2131832083F501208131813D
S11302C0FC01318320832881FA01208328812223A1
S11302D079F0912C292D30E0FD01E20FF31F868087
S11302E0260F371FF901808293942881921690F388
S11302F0F7012081318120233123232BB9F607C054
S1130300000F111FAF5F2281A21708F4AFCFDF9156
S1130310CF911F910F91FF90EF90DF90CF90BF90FE
S1130320AF909F908F9008951F920F920FB60F92E7
S113033011240BB60F922F933F934F936F937F9398
S11303408F939F93AF93BF93CF93DF93EF93FF93D9
S1130350EDEEF0E0408110828091EE0086FF43C014
S1130360E0E0F1E0918180819817E9F16091010169
S113037070E0FB01EE0FFF1FEE0FFF1FEE0FFF1FDC
S1130380E60FF71FE050FF4F8281882379F080E069
S11303909F01CAEFD0E0DF011296F901E80FF11DC9
S11303A0938198838F5F9C918917B8F3FB01EE0FBB
S11303B0FF1FEE0FFF1FEE0FFF1F6E0F7F1FFB01CE
S11303C0E050FF4F828180658093EF0080910101AE
S11303D0873030F4E0E0F1E081818F5F818361C098
S11303E0109201015EC090914C019295907F9031E2
S11303F008F457C080E18093ED008091EE0085FD04
S11304000BC0E0E1CDEED0E0AEEEB0E046C0E88354
S11304108C9185FF42C001C0E0E1AAE4B1E02D91D6
S11304203C911197E295EF70E15081E090E00E2E3F
S113043002C0880F991F0A94E2F7822B932B11961E
S11304409C938E938091EF008F706E2F70E09BE0F1
S1130450E99FF0011124E65BFE4F858385818823A3
S1130460B1F080E0CAEFD0E09BE0969F9001979FA7
S1130470300D1124265B3E4FD90115969881F90160
S1130480E80FF11D96838F5F9C918917B8F3EFEE07
S1130490F0E080818068808304C0E05F9E1708F0EC
S11304A0B6CF1092EE004093ED00FF91EF91DF91F3
S11304B0CF91BF91AF919F918F917F916F914F9108
S11304C03F912F910F900BBE0F900FBE0F901F9076
S11304D01895CF93DF93CDB7DEB72B970FB6F8946B
S11304E0DEBF0FBECDBF80E090E0F2DD88E090E09B
S11304F05BDE78948FEF87B918B80BC0AE01455F07
S11305005F4FBE016D5F7F4FCE01019692DE8B81FE
S113051088B986DE8111F2CFFCCFDBDFF894FFCF00
S9030000FC
