:1000000049C0000064C0000062C0000060C0000081
:100010005EC000005CC000005AC0000058C0000074
:1000200056C0000054C0000052C0000050C0000084
:100030004EC000004CC000004AC0000048C0000094
:1000400046C0000044C000000CC1000040C00000D9
:100050003EC000003CC000003AC0000038C00000B4
:1000600036C0000034C0000032C0000030C00000C4
:100070002EC000002CC000002AC0000028C00000D4
:1000800026C0000024C0000022C0000020C00000E4
:100090001EC0000011241FBECFEFD0E1DEBFCDBFD8
:1000A00011E0A0E0B1E0E0E8F4E000E00BBF02C046
:1000B00007900D92AC30B107D9F721E0ACE0B1E088
:1000C00001C01D92A33FB207E1F7D7D1D7C198CFA6
:1000D000EF92FF920F931F93CF93DF9321E0209332
:1000E000D80022E02093E20024E02093E30023E103
:1000F0002093E4002FE72093DF002FEF2093DE0012
:1001000020EB2093DB001092ED001092EE004FEFF9
:100110005FEFBA014093F4005093F5006093F6004E
:100120007093F700A0E0B0E0880F991FAA1FBB1FD3
:10013000880F991FAA1FBB1F880F991FAA1FBB1FDB
:100140008093F0009093F100A093F200B093F3003D
:1001500080E18093EF000DEE10E02EEE30E0C4EF72
:10016000D0E0A0EFB0E00F2EFFEEEF2EF12CF02D3F
:10017000F8018083F9011082488359836A837B8365
:100180001D921D921D921C921397F7011082805FA1
:10019000803F71F782E08093D800DF91CF911F916B
:1001A0000F91FF90EF900895CF93DF93EDEEF0E085
:1001B000708110822091DC0020FD16C0662381F042
:1001C000FC012FEF260F30E02F5F3F4FDC01A20F25
:1001D000B31FCAEFD0E091919883AE17BF07D9F74C
:1001E00060656093EF0038C020910C0130E0F901A8
:1001F000EE0FFF1FEE0FFF1FEE0FFF1F2E0F3F1F13
:10020000F901E45FFE4F62836623D1F0DC0140E038
:1002100050E0CCE0D1E0288130E08D91F901EE0F83
:10022000FF1FEE0FFF1FEE0FFF1FE20FF31FE45F34
:10023000FE4FE40FF51F83834F5F5F4F461758F360
:1002400080910C01873030F4ECE0F1E080818F5F29
:10025000808302C010920C017093ED00DF91CF916A
:1002600008951F920F920FB60F9211240BB60F92A2
:100270002F933F934F936F937F938F939F93AF935E
:10028000BF93CF93DF93EF93FF93EDEEF0E04081C8
:1002900010828091EE0086FF43C0ECE0F1E0918196
:1002A00080819817E9F160910D0170E0FB01EE0F7C
:1002B000FF1FEE0FFF1FEE0FFF1FE60FF71FE45F9C
:1002C000FE4F8281882379F080E09F01CAEFD0E061
:1002D000DF011296F901E80FF11D938198838F5F7A
:1002E0009C918917B8F3FB01EE0FFF1FEE0FFF1F64
:1002F000EE0FFF1F6E0F7F1FFB01E45FFE4F828139
:1003000080658093EF0080910D01873030F4ECE040
:10031000F1E081818F5F818361C010920D015EC029
:10032000909158019295907F903108F457C080E1E8
:100330008093ED008091EE0085FD0BC0E0E1CDEEF5
:10034000D0E0AEEEB0E046C0E8838C9185FF42C0BD
:1003500001C0E0E1A6E5B1E02D913C911197E29555
:10036000EF70E15081E090E00E2E02C0880F991FDF
:100370000A94E2F7822B932B11969C938E93809193
:10038000EF008F706E2F70E09BE0E99FF001112469
:10039000EA5AFE4F858385818823B1F080E0CAEF59
:1003A000D0E09BE0969F9001979F300D11242A5A30
:1003B0003E4FD90115969881F901E80FF11D9683FA
:1003C0008F5F9C918917B8F3EFEEF0E08081806831
:1003D000808304C0E05F9E1708F0B6CF1092EE0055
:1003E0004093ED00FF91EF91DF91CF91BF91AF91DD
:1003F0009F918F917F916F914F913F912F910F908E
:100400000BBE0F900FBE0F901F901895CF93DF93E8
:10041000CDB7DEB72C970FB6F894DEBF0FBECDBFB9
:1004200080E190E055DE78948CE0E0E0F1E0DE01E0
:10043000119601900D928A95E1F78FEF87B900E050
:1004400011E0F12C198361E0CE010196ADDE80E868
:100450009FE4A2E1B0E00197A109B109E1F71038EA
:1004600029F0113031F0002321F001C001E0169590
:1004700002C0110F0F2D18B9E5CFC8DFF894FFCFD8
:0C048000000102030405060708090A0B2E
:00000001FF
