S00E00006C696263616E2E73726563AD
S113000049C0000064C0000062C0000060C000007D
S11300105EC000005CC000005AC0000058C0000070
S113002056C0000054C0000052C0000050C0000080
S11300304EC000004CC000004AC0000048C0000090
S113004046C0000044C00000FBC0000040C00000E7
S11300503EC000003CC000003AC0000038C00000B0
S113006036C0000034C0000032C0000030C00000C0
S11300702EC000002CC000002AC0000028C00000D0
S113008026C0000024C0000022C0000020C00000E0
S11300901EC0000011241FBECFEFD0E1DEBFCDBFD4
S11300A011E0A0E0B1E0EEEAF4E000E00BBF02C032
S11300B007900D92AC30B107D9F722E0ACE0B1E083
S11300C001C01D92A330B207E1F7EED1EEC198CF83
S11300D0EF92FF920F931F93CF93DF9381E080936E
S11300E0D80082E08093E20084E08093E30083E11F
S11300F08093E4008FE78093DF008FEF8093DE002E
S113010080EB8093DB0080E00DEE10E02EEE30E01B
S1130110C4EFD0E04FEF5FEFBA01A0EFB0E00F2ED5
S1130120FFEEEF2EF12CF02DF8018083F9011082FF
S1130130488359836A837B831D921D921D921C926E
S11301401397F7011082805F803F71F782E08093FC
S1130150D800DF91CF911F910F91FF90EF900895F8
S11301601F93CF93DF939C01EDEEF0E0108110829A
S11301708091DC0080FD2BC0442371F0FB01AFEFC4
S1130180A40FB0E011966A0F7B1FAAEFB0E0919123
S11301909C936E177F07D9F7C901A0E0B0E0880FE0
S11301A0991FAA1FBB1F880F991FAA1FBB1F880F67
S11301B0991FAA1FBB1F8093F0009093F100A09396
S11301C0F200B093F30040654093EF0033C0ACE01D
S11301D0B1E0EC918BE08E9FF0011124E45FFE4FBF
S11301E033832283EC918E9FF0011124E45FFE4F50
S11301F04483442399F0DB0180E090E0CCE0D1E03B
S11302005BE038812D91FC01539FE00DF11D112419
S1130210E45FFE4F25830196841798F380910C01C7
S1130220873030F4ECE0F1E080818F5F808302C09E
S113023010920C011093ED00DF91CF911F9108955E
S11302401F920F920FB60F9211240BB60F922F9399
S11302503F934F935F936F937F938F939F93AF934A
S1130260BF93CF93DF93EF93FF93EDEEF0E0208104
S113027010828091EE0086FF68C0ECE0F1E091818D
S11302808081981709F461C0E0910D018BE0E89F2B
S1130290F0011124E45FFE4F84818823F1F080E0B3
S11302A0ACE0B1E09BE0CAEFD0E01196EC9111977D
S11302B09E9FF0011124E45FFE4FE80FF11D35818C
S11302C038838F5F1196EC9111979E9FF001112452
S11302D0E45FFE4F3481831740F3ECE0F1E0A18149
S11302E03BE03A9FD0011124A45FBE4F12968D913A
S11302F09C911397A0E0B0E0880F991FAA1FBB1F21
S1130300880F991FAA1FBB1F880F991FAA1FBB1F05
S11303108093F0009093F100A093F200B093F30067
S1130320A1813A9FD0011124A45FBE4F14968C91F1
S113033080658093EF008181873020F481818F5F15
S1130340818361C010920D015EC090916801929505
S1130350907F903108F457C080E18093ED00809144
S1130360EE0085FD0BC0E0E1CDEED0E0AEEEB0E0F6
S113037046C0E8838C9185FF42C001C0E0E1A6E657
S1130380B1E04D915C911197E295EF70E15081E0FD
S113039090E00E2E02C0880F991F0A94E2F7842B76
S11303A0952B11969C938E938091EF008F706E2FF6
S11303B070E09BE0E99FF0011124EA59FE4F858328
S11303C085818823B1F080E0CAEFD0E09BE0969F5E
S11303D0A001979F500D11244A595E4FDA011596DA
S11303E09881FA01E80FF11D96838F5F9C9189171C
S11303F0B8F3EFEEF0E080818068808304C0E05FB2
S11304009E1708F0B6CF1092EE002093ED00FF91F6
S1130410EF91DF91CF91BF91AF919F918F917F9198
S11304206F915F914F913F912F910F900BBE0F9061
S11304300FBE0F901F901895CF93DF93CDB7DEB703
S11304402C970FB6F894DEBF0FBECDBF41DE789473
S11304508CE0E0E0F1E0DE01119601900D928A95C6
S1130460E1F78FEF87B900E011E0F12C198341E047
S1130470BE016F5F7F4F88E090E072DE80E89FE40A
S1130480A2E1B0E00197A109B109E1F7103829F020
S1130490113031F0002321F001C001E0169502C0B3
S11104A0110F0F2D18B9E2CFC7DFF894FFCF6C
S10F04AE000102030405060708090A0BFC
S9030000FC
