:100000000C944E000C94A7010C94A7010C94A7012A
:100010000C94A7010C94A7010C94A7010C94A701C0
:100020000C94A7010C94A7010C94A7010C94A701B0
:100030000C94A7010C94A7010C94A7010C94A701A0
:100040000C94A7010C94A7010C949D010C94A7019A
:100050000C94A7010C94A7010C94A7010C94A70180
:100060000C94A7010C94A7010C94A7010C94A70170
:100070000C94A7010C94A7010C94A7010C94A70160
:100080000C94A7010C94A7010C94A7010C94A70150
:100090000C94A701010001010003560011241FBEAA
:1000A000CFEFD0E1DEBFCDBFE4E9F0E040E019C022
:1000B000B791A79137912791079107FD0EC09791AE
:1000C0008791EF01F92FE82F0BBF07900D92A21730
:1000D000B307D9F7FE011BBE04C01D92A217B307D8
:1000E000E1F7EB39F40721F70E94A9010C9478009D
:0400F000F894FFCFB2
:1000F400CF92DF92EF92FF920F931F93CF93DF93F0
:1001040021E02093D80022E02093E20024E0209311
:10011400E30023E12093E40020EA2093DB00109223
:10012400ED001092EE004FEF5FEFBA014093F40040
:100134005093F5006093F6007093F70020E120934C
:10014400EF00A0E0B0E0880F991FAA1FBB1F880F23
:10015400991FAA1FBB1F880F991FAA1FBB1F80933B
:10016400F0009093F100A093F200B093F30081E0CB
:100174000F2EFDEEEF2EF12CF02D0EEE10E0C4EF5D
:10018400D0E0A0EFB0E00F2EFFEECF2ED12CF02D5B
:10019400982F9295907FF7019083F80110824883FD
:1001A40059836A837B831D921D921D921C9213971F
:1001B400F60120838F5F8E3059F782E08093D80058
:1001C400DF91CF911F910F91FF90EF90DF90CF902F
:0201D40008958C
:1001D6000F931F93CF93DF938C01EA019091000157
:1001E600923008F447C080E18093ED008091EE00E4
:1001F60085FD0DC091E0ADEEB0E0EEEEF0E035C06D
:10020600292F2295207F2C93208125FF2EC08091B7
:10021600F0009091F100A091F200B091F300689483
:1002260012F8B695A795979587951694D1F7F80184
:10023600918380838091EF008F708883882361F09B
:1002460080E0AAEFB0E09C91FB01E80FF11D9083DE
:100256008F5F98818917B8F3EEEEF0E080818F7D8D
:10026600808380E88093EF0005C09F5F20910001A6
:0E027600921730F2DF91CF911F910F910895F2
:10028400CF93DF93CDB7DEB72B970FB6F894DEBFCD
:100294000FBECDBF82E090E00E947A0080E090E043
:1002A4000E94750178948FEF87B918B80F2EFDEE70
:1002B400CF2ED12CF02D6894FF24F4F80EEE10E02C
:1002C400F601F082F801808185FFFCCFAE01455F25
:1002D4005F4FBE016D5F7F4FCE0101960E94EB0020
:0602E4008B8188B9EDCF0B
:1002EA00209100012F3018F52091000131E0320FE2
:1002FA00309300012295207F2093ED00A0E0B0E02A
:10030A00880F991FAA1FBB1F880F991FAA1FBB1FFF
:10031A00880F991FAA1FBB1F8093F0009093F100CA
:10032A00A093F200B093F30080E88093EF00089561
:10033A001F920F920FB60F9211240F900FBE0F90BB
:04034A001F90189553
:04034E000C9400000B
:040352000E944201C2
:0103560001A5
:00000001FF
